S013000065653230395F66696E616C2E7372656343
S11300000C94B5000C94D2000C94D2000C94D20041
S11300100C94D2000C94D2000C94D2000C9446029E
S11300200C94D2000C94D2000C94D2000C94D20004
S11300300C94D2000C94D2000C94D2000C94D200F4
S11300400C942B020C94D2000C94D2000C94D20089
S11300500C94D2000C94D4000C94D2000C94D200D2
S11300600C94D2000C94D2006E616E00696E66002E
S113007000407A10F35A00A0724E18090010A5D45B
S1130080E80000E87648170000E40B54020000CAB8
S11300909A3B000000E1F5050000809698000000FE
S11300A040420F000000A08601000000102700005D
S11300B00000E803000000006400000000000A00E3
S11300C0000000000100000000002C76D888DC67E6
S11300D04F0823DFC1DFAE59E1B1B796E5E3E4533E
S11300E0C63AE651997696E8E6C28426EB898C9B5B
S11300F062ED407C6FFCEFBC9C9F40F2BAA56FA5FB
S1130100F490055A2AF75C936B6CF9676DC11BFC7C
S1130110E0E40D47FEF520E6B500D0ED902E030097
S1130120943577050080841E080000204E0A0000E4
S113013000C80C333333330F986E12831141EF8DA3
S11301402114893BE65516CFFEE6DB18D1844B38E3
S11301501BF77C1D901DA4BBE424203284725E2214
S11301608100C9F124ECA1E53D2711241FBECFEF86
S1130170D8E0DEBFCDBF11E0A0E0B1E0E6E9F9E1EF
S113018002C005900D92AE35B107D9F723E0AEE574
S1130190B1E001C01D92AA3FB207E1F70E94270413
S11301A00C94C90C0C9400001F920F920FB60F927E
S11301B011242F933F934F935F936F937F938F9368
S11301C09F93AF93BF93EF93FF9380915E01803A27
S11301D008F042C080FF1CC0ECE7F0E080818E7F15
S11301E08083EAE7F0E0808180648083E0915E01AF
S11301F0F0E0209178008091790090E0982F882792
S1130200822BEE0FFF1FEC58FE4F918380831BC09F
S1130210ECE7F0E0808181608083EAE7F0E08081B0
S113022080648083E0915E01F0E020917800809109
S1130230790090E0982F8827822BEE0FFF1FEC5453
S1130240FD4F9183808385B3816085BB80915E017E
S11302508F5F80935E010CC0EAE7F0E080818F7DC0
S113026080838081877F808310925E010E949A043C
S1130270FF91EF91BF91AF919F918F917F916F917A
S11302805F914F913F912F910F900FBE0F901F9050
S11302901895ECE7F0E01082808180648083EAE7BF
S11302A0F0E0108280818068808380818064808314
S11302B0808181608083808182608083EBE7F0E0CD
S11302C010828081846080830895EAE7F0E0808171
S11302D08062808380818F7E808380818860808338
S11302E07894808180648083089587B1886387B916
S11302F08AB1806B8AB984B1806184B908951F93EF
S1130300CF93DF93EC01162F51E037C09E01ADEC83
S1130310BCEC0E94E50AFC01F695E795F695E79595
S1130320F695E795CF01880F991FEE0FFF1FEE0F8B
S1130330FF1FEE0FFF1FE80FF91FCE018E1B9F0B4F
S1130340FC010E94E50AEC01D695C795D695C795A0
S1130350D695C795852F90E0FF27EF5EFE4F20814D
S1130360FC01E05AFE4F2083511306C0FC01E05A01
S1130370FE4F8081806880835F5F543038F2E42FC1
S1130380F0E0E25FFE4F808180936001DF91CF91C6
S11303901F910895E0915F01F0E0E05AFE4F408123
S11303A088B1877F88B988B18F7D88B987E018C004
S11303B0242F30E0082E02C0359527950A94E2F7E1
S11303C020FF04C098B1906198B903C098B19F7E92
S11303D098B998B1986098B998B1977F98B98150B5
S11303E0882334F78BB180618BB98BB180628BB970
S11303F085B1806185B98BB180688BB988B1806221
S113040088B988B18F7D88B980915F01811104C05A
S11304108BB18F778BB913C080915F01813021F448
S113042085B18F7E85B90BC080915F01823021F444
S11304308BB18F7D8BB903C08BB18F7E8BB98091CB
S11304405F018F5F80935F0180915F01843010F0C2
S113045010925F0108951F920F920FB60F9211240C
S11304600F900FBE0F901F90189514BC84B5816037
S113047084BD84B5826084BD84B5886084BD15BCA8
S113048085B5826085BD88E187BD08951F920F926E
S11304900FB60F9211242F933F934F935F936F9353
S11304A07F938F939F93AF93BF93EF93FF930E9498
S11304B0CA018091640190916501892BB9F420E00F
S11304C030E040E251E460916C0170916D018091E3
S11304D06E0190916F010E947E060E94C105DC01AD
S11304E0CB0140E062E00E947F013BC08091640147
S11304F09091650184369105B9F420E030E048EC30
S113050052E4609170017091710180917201909137
S113051073010E947E060E94C105DC01CB0141E00B
S113052063E00E947F011DC0809164019091650188
S1130530883C9105B1F420E030E048EC52E460914D
S113054068017091690180916A0190916B010E9428
S11305507E060E94C105DC01CB0142E063E00E94FB
S11305607F018091640190916501019690936501EA
S11305708093640180916401909165018C32914073
S113058020F01092650110926401FF91EF91BF91E8
S1130590AF919F918F917F916F915F914F913F9117
S11305A02F910F900FBE0F901F901895E0EBF0E085
S11305B01082808182608083E1EBF0E01082808190
S11305C0826080838081846080838EE48093B30022
S11305D0E0E7F0E080818260808308959C011092BE
S11305E0C000E1ECF0E01082808188608083E2EC5E
S11305F0F0E01082808182608083808184608083C7
S1130600C901A0E0B0E0880F991FAA1FBB1F880F83
S1130610991FAA1FBB1F9C01AD01220F331F441F4A
S1130620551F220F331F441F551F60E874E88EE1E5
S113063090E00E94C30A215031093093C5002093F1
S1130640C40008959091C00095FFFCCF8093C6002C
S113065008950E94220380E090E008952F923F9233
S11306604F925F926F927F928F929F92AF92BF92BE
S1130670CF92DF92EF92FF921F93CF93DF9300D03C
S113068000D0CDB7DEB711E0812C912C54012401A8
S11306903501212C312C78C0812F90E09A838983F5
S11306A0FC01EE0FFF1FEC54FD4F80819181281651
S11306B0390640F4E981FA81EE0FFF1FEC54FD4F37
S11306C020803180E981FA81EE0FFF1FFA83E983EC
S11306D0EC58FE4F6081718180E090E00E94F0054B
S11306E020E030E040EA5BE30E947E0626E636E640
S11306F046E050E40E94E20421EA3DEB44E050E489
S11307000E944F056B017C0189819A818C549D4F15
S1130710FC016081718180E090E00E94F00520E09E
S113072030E040EA5BE30E947E0626E636E646E0D9
S113073050E40E94E2042FE037EF49E35DE30E94B6
S11307404F0569837A838B839C83A7019601C70134
S1130750B6010E947E069B01AC01C301B2010E9456
S1130760E3042B013C0129813A814B815C81C7015F
S1130770B6010E947E069B01AC01C501B4010E9432
S1130780E3044B015C011F5F1F3908F485CFB101FD
S113079080E090E00E94F00520E030E040EA5BE376
S11307A00E947E0626E636E646E050E40E94E20415
S11307B02FE037EF49E35DE30E944F0560936C013E
S11307C070936D0180936E0190936F0120E030E08F
S11307D04EE153E4C301B2010E944F050E94F106A9
S11307E0609370017093710180937201909373010F
S11307F020E030E04EE153E4C501B4010E944F050E
S11308002AE037ED43E85FE30E947E0660936801C7
S11308107093690180936A0190936B0181E08093E6
S113082066010F900F900F900F90DF91CF911F9161
S1130830FF90EF90DF90CF90BF90AF909F908F90FC
S11308407F906F905F904F903F902F90089580E03D
S113085091E09093F7038093F60380E895E20E9479
S1130860EE020E9449010E9435020E94D6020E94B3
S1130870750110926701109266014A9B05C04A995E
S1130880FECF4A9BFECF02C04A9BFECF0E94650169
S1130890809167018823E1F30E942E038091660111
S11308A08823E1F380916F018F9380916E018F9380
S11308B080916D018F9380916C018F938BE191E016
S11308C09F938F930E94550C809173018F93809115
S11308D072018F93809171018F93809170018F9336
S11308E083E391E09F938F930E94550C80916B0159
S11308F08F9380916A018F93809169018F93809186
S113090068018F938AE491E09F938F930E94550C22
S11309102FE78AE196E0215080409040E1F700C043
S113092000008DB79EB742960FB6F8949EBF0FBED7
S11309308DBF9FCFCF93DF93A0E03CC08A2F90E080
S11309409C01220F331FA9014F5F5F4FF901EE0F86
S1130950FF1FEC54FD4F0190F081E02D0196880FAC
S1130960991F880F991FEC01CC54DD4F6881798160
S11309706E0F7F1F76956795440F551FFA01EC544F
S1130980FD4F71836083FA01EC58FE4F4081518121
S1130990F9013396EE0FFF1FEC58FE4F2081318191
S11309A0240F351F36952795FC01EC58FE4F3183F3
S11309B02083AF5FAF3410F281E080936701DF9151
S11309C0CF9108955058BB27AA270E94FA040C948B
S11309D044060E94360638F00E943D0620F039F4A1
S11309E09F3F19F426F40C9433060EF4E095E7FBCC
S11309F00C942D06E92F0E94550658F3BA17620786
S1130A0073078407950720F079F4A6F50C9477060C
S1130A100EF4E0950B2EBA2FA02D0B01B901900115
S1130A200C01CA01A0011124FF27591B99F0593F59
S1130A3050F4503E68F11A16F040A22F232F342FA1
S1130A404427585FF3CF469537952795A795F040EF
S1130A505395C9F77EF41F16BA0B620B730B840B04
S1130A60BAF09150A1F0FF0FBB1F661F771F881FBC
S1130A70C2F70EC0BA0F621F731F841F48F4879514
S1130A8077956795B795F7959E3F08F0B0CF939506
S1130A90880F08F09927EE0F9795879508950E947F
S1130AA063050C9444060E943D0658F00E943606E5
S1130AB040F029F45F3F29F00C942D0651110C9459
S1130AC078060C9433060E94550668F39923B1F313
S1130AD0552391F3951B550BBB27AA276217730760
S1130AE0840738F09F5F5F4F220F331F441FAA1FF4
S1130AF0A9F335D00E2E3AF0E0E832D091505040B0
S1130B00E695001CCAF72BD0FE2F29D0660F771F5D
S1130B10881FBB1F261737074807AB07B0E809F043
S1130B20BB0B802DBF01FF2793585F4F3AF09E3FC8
S1130B30510578F00C942D060C9478065F3FE4F38D
S1130B40983ED4F3869577956795B795F7959F5F0B
S1130B50C9F7880F911D9695879597F90895E1E057
S1130B60660F771F881FBB1F621773078407BA07B6
S1130B7020F0621B730B840BBA0BEE1F88F7E09511
S1130B8008950E945D0688F09F5798F0B92F992721
S1130B90B751B0F0E1F0660F771F881F991F1AF064
S1130BA0BA95C9F714C0B13091F00E947706B1E04C
S1130BB008950C947706672F782F8827B85F39F04B
S1130BC0B93FCCF3869577956795B395D9F73EF4FD
S1130BD090958095709561957F4F8F4F9F4F0895A5
S1130BE0E89409C097FB3EF49095809570956195C3
S1130BF07F4F8F4F9F4F9923A9F0F92F96E9BB2779
S1130C009395F695879577956795B795F111F8CFF4
S1130C10FAF4BB0F11F460FF1BC06F5F7F4F8F4F5F
S1130C209F4F16C0882311F096E911C0772321F055
S1130C309EE8872F762F05C0662371F096E8862FED
S1130C4070E060E02AF09A95660F771F881FDAF744
S1130C50880F9695879597F9089597F99F6780E887
S1130C6070E060E008959FEF80EC089500240A94FA
S1130C701616170618060906089500240A94121673
S1130C801306140605060895092E0394000C11F4A6
S1130C90882352F0BB0F40F4BF2B11F460FF04C053
S1130CA06F5F7F4F8F4F9F4F089557FD9058440FAC
S1130CB0551F59F05F3F71F04795880F97FB991FB7
S1130CC061F09F3F79F08795089512161306140674
S1130CD0551FF2CF4695F1DF08C016161706180601
S1130CE0991FF1CF86957105610508940895E894DC
S1130CF0BB2766277727CB0197F908950E949106B1
S1130D000C9444060E94360638F00E943D0620F0FA
S1130D10952311F00C942D060C94330611240C9495
S1130D2078060E94550670F3959FC1F3950F50E025
S1130D30551F629FF001729FBB27F00DB11D639F89
S1130D40AA27F00DB11DAA1F649F6627B00DA11D2F
S1130D50661F829F2227B00DA11D621F739FB00DD5
S1130D60A11D621F839FA00D611D221F749F332745
S1130D70A00D611D231F849F600D211D822F762FDE
S1130D806A2F11249F5750409AF0F1F088234AF0BB
S1130D90EE0FFF1FBB1F661F771F881F9150504027
S1130DA0A9F79E3F510580F00C942D060C9478060B
S1130DB05F3FE4F3983ED4F3869577956795B795AE
S1130DC0F795E7959F5FC1F7FE2B880F911D9695C8
S1130DD0879597F9089519F416F40C9433060C9436
S1130DE031070E945D06B8F39923C9F3B6F39F5700
S1130DF0550B87FF0E943F070024A0E640EA9001BC
S1130E0080585695979528F4805C660F771F881F45
S1130E1020F026173707480730F4621B730B840B46
S1130E20202931294A2BA69517940794202531258A
S1130E304A2758F7660F771F881F20F026173707B1
S1130E40480730F4620B730B840B200D311D411DD8
S1130E50A09581F7B901842F9158880F96958795AD
S1130E6008959F3F31F0915020F4879577956795C9
S1130E70B795880F911D9695879597F90895915088
S1130E805040660F771F881FD2F70895A0E1B0E0A5
S1130E90ECE4F7E00C94F40A7C011B016A01FC0108
S1130EA017821682838181FF44C39E012F5F3F4FC7
S1130EB03901F7019381F10193FD859193FF8191AC
S1130EC01F01882309F431C3853239F493FD8591D8
S1130ED093FF81911F01853239F4B70190E00E949C
S1130EE0190C56016501E5CF10E0512C912CFFE15E
S1130EF0F915D8F08B3279F038F4803279F08332F6
S1130F00A1F4F92DF0612EC08D3261F0803369F4C3
S1130F10292D21602DC0392D3260932E892D8460B6
S1130F20982E2AC0E92DE86015C097FC2DC020ED4D
S1130F30280F2A3088F496FE06C03AE0139F200D4D
S1130F401124122F19C08AE0589E200D1124522E0C
S1130F50E92DE0629E2E10C08E3231F496FCE5C27B
S1130F60F92DF0649F2E08C08C3621F4292D2068B9
S1130F70922E02C0883641F4F10193FD859193FFCE
S1130F8081911F018111B3CF9BEB980F933020F413
S1130F90992D9061805E07C09BE9980F933008F00B
S1130FA066C1992D9F7E96FF16E09F73992E853614
S1130FB019F49064992E08C0863621F4392F3068CC
S1130FC0932E02C01111115097FE07C01C3350F428
S1130FD044244394410E27E00BC0183038F027E036
S1130FE017E005C027E09CE3492E02C0212F412CC5
S1130FF0560184E0A80EB11CF601608171818281E2
S11310009381042DA3010E942B0B6C01F981FC87B1
S1131010F0FF02C0F3FF06C091FC06C092FE06C0BA
S113102000E205C00DE203C00BE201C000E08C85C4
S11310308C7019F001115AC29BC297FE10C04C0C5F
S1131040FC85F4FF04C08A81813309F44A941414A2
S113105074F528E0241578F588E0482E2CC096FC19
S11310602AC0812F90E08C159D059CF03CEFC3169F
S11310703FEFD30674F0892D8068982E0AC0E2E011
S1131080F0E0EC0FFD1FE10FF11D8081803319F4B6
S113109011501111F4CF97FE0EC044244394410E15
S11310A0812F90E0C816D9062CF41C1904C04424DE
S11310B0439401C010E097FE06C01C141D0434F4D0
S11310C0C601019605C085E090E002C081E090E091
S11310D001110196112331F0212F30E02F5F3F4F92
S11310E0820F931F252D30E08217930714F4581AAA
S11310F001C0512C892D897049F4552039F0B7016C
S113110080E290E00E94190C5A94F7CF002329F052
S1131110B701802F90E00E94190C93FC09C0552060
S113112039F0B70180E390E00E94190C5A94F7CF8C
S113113097FE4CC04601D7FE02C0812C912CC601FB
S113114088199909F301E80FF91FFE87ED879601C5
S113115024193109388B2F87012F10E0119501953F
S113116011093FEF8316930629F4B7018EE290E04C
S11311700E94190CC814D9044CF08F8598898815DD
S1131180990524F4ED85FE85818101C080E3F1E0B9
S11311908F1A91082D853E852F5F3F4F3E872D87FF
S11311A0801691062CF0B70190E00E94190CD9CF5B
S11311B0C814D90441F49A81963320F4953319F470
S11311C03C8534FF81E3B70190E04EC08A818133CE
S11311D019F09C859F7E9C87B70190E00E94190CB2
S11311E0111105C094FC18C085E690E017C0B70142
S11311F08EE290E00E94190C1E5F82E001E0080F6D
S1131200F301E80FF11D8081B70190E00E94190CF1
S1131210802F0113F3CFE6CF85E490E0B7010E945D
S1131220190CD7FC06C0C114D10441F4EC85E4FFC9
S113123005C0D194C194D1088DE201C08BE2B701FD
S113124090E00E94190C80E32AE0C216D1042CF02D
S11312508F5FFAE0CF1AD108F7CFB70190E00E9470
S1131260190CB701C601C0960E94190C54C18336EB
S113127031F0833779F0833509F056C020C0560128
S113128032E0A30EB11CF6018081898301E010E0F5
S1131290630112C05601F2E0AF0EB11CF601C0802A
S11312A0D18096FE03C0612F70E002C06FEF7FEF24
S11312B0C6010E940E0C8C01F92DFF7714C0560153
S11312C022E0A20EB11CF601C080D18096FE03C0BC
S11312D0612F70E002C06FEF7FEFC6010E94030C24
S11312E08C01F92DF0689F2EF3FD1AC0852D90E036
S11312F008171907A8F4B70180E290E00E94190CBE
S11313005A94F4CFF60197FC859197FE81916F0171
S1131310B70190E00E94190C51105A940150110920
S11313200115110579F7F7C0843611F0893661F596
S1131330560197FE09C024E0A20EB11CF60160819B
S11313407181828193810AC0F2E0AF0EB11CF60173
S113135060817181072E000C880B990BF92DFF76A3
S11313609F2E97FF09C090958095709561957F4F4A
S11313708F4F9F4FF0689F2E2AE030E0A3010E9418
S11313806B0CC82EC6183FC0092D853721F40F7E7B
S11313902AE030E01DC0097F8F3691F018F48835BB
S11313A059F0C3C0803719F0883711F0BEC000610E
S11313B004FF09C0046007C094FE08C0066006C0AC
S11313C028E030E005C020E130E002C020E132E056
S11313D0560107FF09C084E0A80EB11CF601608124
S11313E071818281938108C0F2E0AF0EB11CF601D5
S11313F06081718180E090E0A3010E946B0CC82E93
S1131400C6180F77902E96FE0BC0092D0E7FC116BD
S113141050F494FE0AC092FC08C0092D0E7E05C04B
S1131420DC2C092D03C0DC2C01C0D12E04FF0DC01F
S1131430FE01EC0DF11D8081803311F4097E09C099
S113144002FF06C0D394D39404C0802F867809F099
S1131450D39403FD11C000FF06C01C2DD51480F4E5
S1131460150D1D190DC0D51458F4B70180E290E094
S11314700E94190CD394F7CFD51410F45D1801C051
S1131480512C04FF10C0B70180E390E00E94190CB6
S113149002FF17C001FD03C088E790E002C088E5A1
S11314A090E0B7010CC0802F867859F001FF02C08C
S11314B08BE201C080E207FD8DE2B70190E00E945B
S11314C0190CC11638F4B70180E390E00E94190C9E
S11314D01150F7CFCA94F301EC0DF11D8081B701CF
S11314E090E00E94190CC110F5CF15C0F4E0F51579
S11314F060F584E0581A93FE1FC0011127C02C85A3
S113150023FF2AC008E610E0392D3071932EF8012C
S11315108491811124C0552009F4E4CCB70180E200
S113152090E00E94190C5A94F6CFF70186819781B6
S113153026C08FEF9FEF23C0B70180E290E00E94A6
S1131540190C5A945110F8CFD8CF512CB701802FD1
S113155090E00E94190CD3CF0CE610E0D5CF911087
S11315608052B70190E00E94190C0F5F1F4FCFCF3C
S113157023E0251510F483E0BDCF512CC0CF609635
S1131580E2E10C94100BA1E21A2EAA1BBB1BFD0175
S11315900DC0AA1FBB1FEE1FFF1FA217B307E4074E
S11315A0F50720F0A21BB30BE40BF50B661F771FA6
S11315B0881F991F1A9469F7609570958095909586
S11315C09B01AC01BD01CF010895A29FB001B39F5F
S11315D0C001A39F700D811D1124911DB29F700D38
S11315E0811D1124911D08952F923F924F925F9275
S11315F06F927F928F929F92AF92BF92CF92DF921F
S1131600EF92FF920F931F93CF93DF93CDB7DEB783
S1131610CA1BDB0B0FB6F894DEBF0FBECDBF099417
S11316202A88398848885F846E847D848C849B846E
S1131630AA84B984C884DF80EE80FD800C811B817C
S1131640AA81B981CE0FD11D0FB6F894DEBF0FBEAB
S1131650CDBFED010895283008F027E03327DA01E3
S1131660990F311D87FD916000966105710539F46C
S113167032602E5F3D9330E32A95E1F708959F3F52
S113168030F080387105610509F03C5F3C5F3D93A3
S1131690913008F08068911DDF93CF931F930F93CF
S11316A0FF92EF92192F987F9695E92F969596952C
S11316B0E90FFF27E653FF4F99273327EE24FF2432
S11316C0A701E70105900894079428F4360FE71E54
S11316D0F81E491F511D660F771F881F991F069416
S11316E0A1F70590079428F4E70EF81E491F561F2A
S11316F0C11D770F881F991F661F0694A1F70590D7
S1131700079428F4F80E491F561FC71FD11D880FD0
S1131710991F661F771F0694A1F70590079420F47C
S1131720490F561FC71FD81F990F661F771F881FA1
S11317300694A9F784911095177041F0D695C79532
S113174057954795F794E7941A95C1F7E0E7F0E0C9
S113175068941590159135916591959105907FE266
S11317607395E118F10A430B560BC90BD009C0F766
S1131770E10CF11E431F561FC91FD01D7EF47033A8
S113178011F48A95E6CFE894015030F0080F0AF47A
S11317900027021708F4202F2395022F7A3328F00C
S11317A079E37D932A95E9F710C07D932A9589F60C
S11317B0069497956795379517951794E118F10A4C
S11317C0430B560BC90BD00998F023957E91739562
S11317D07A3308F070E37C932013B8F77E9170613C
S11317E07D9330F0839571E37D9370E32A95E1F75F
S11317F01124EF90FF900F911F91CF91DF919927C2
S113180087FD90950895FC0105906150704001108A
S1131810D8F7809590958E0F9F1F0895FC01615015
S1131820704001900110D8F7809590958E0F9F1FFE
S113183008950F931F93CF93DF93FB01238121FD21
S113184003C08FEF9FEF2CC022FF16C04681578143
S1131850248135814217530744F4A081B1819D014D
S11318602F5F3F4F318320838C93268137812F5FF5
S11318703F4F3783268314C08B01EC01FB010084A6
S1131880F185E02D0995892BE1F6D80116968D9105
S11318909C911797019617969C938E931697CE0159
S11318A0DF91CF911F910F910895A0E0B0E0EBE597
S11318B0FCE00C94040BAE014B5F5F4FFA016191A5
S11318C07191AF018091F6039091F7030E9446074E
S11318D0E2E00C94200BFA01AA27283051F12031C0
S11318E081F1E8946F936E7F6E5F7F4F8F4F9F4FB0
S11318F0AF4FB1E03ED0B4E03CD0670F781F891FF2
S11319009A1FA11D680F791F8A1F911DA11D6A0FBF
S1131910711D811D911DA11D20D009F468943F9172
S11319202AE0269F11243019305D3193DEF6CF0171
S11319300895462F4770405D4193B3E00FD0C9F737
S1131940F6CF462F4F70405D4A3318F0495D31FDA4
S11319504052419302D0A9F7EACFB4E0A6959795F7
S1131960879577956795BA95C9F7009761057105CD
S113197008959B01AC010A2E069457954795379517
S11319802795BA95C9F7620F731F841F951FA01D71
S10919900895F894FFCF56
S113199600000002000000002903000000001C777C
S11319A6733F065B4F666D7D077F6F5065616B20E5
S11319B6566F6C74616765203D20252E326656206D
S11319C60D0A00524D532043757272656E74203DA4
S11319D620252E326641200D0A00506F776572204D
S11119E63D20252E3266570D0A200D0A000002
S9030000FC
