:100000000C9434000C9451000C9451000C94510049
:100010000C9451000C9451000C9451000C9451001C
:100020000C9451000C9451000C9451000C9451000C
:100030000C9451000C9451000C9451000C945100FC
:100040000C9451000C9451000C9430010C9451000C
:100050000C9479010C94FF000C9451000C94510005
:100060000C9451000C94510011241FBECFEFD8E026
:10007000DEBFCDBF11E0A0E0B1E0E8E2FBE002C0EE
:1000800005900D92A230B107D9F721E0A2E0B1E0CE
:1000900001C01D92AA32B207E1F70E9433030C940B
:1000A00092050C940000CF93DF93CDB7DEB78CE7B9
:1000B00090E020E4FC0120838AE790E02EEEFC0132
:1000C00020838BE790E026E0FC0120838EE790E020
:1000D00021E0FC0120830000DF91CF910895CF93B0
:1000E000DF9300D0CDB7DEB79A83898389819A8167
:1000F00081389A411CF080E89AE10AC089819A818E
:100100008038954E1CF480E895EE02C089819A8172
:100110000F900F90DF91CF910895CF93DF9300D090
:1001200000D0CDB7DEB79A8389837C836B832B8124
:100130003C8189819A81A901481B590BCA0190937E
:100140001701809316018091160190911701833851
:1001500092403CF082E892E0909317018093160160
:100160000DC080911601909117018E379D4F34F488
:100170008EE79DEF909317018093160180911601F1
:100180009091170190931901809318012091160105
:100190003091170143E3429FC001439F900D11240A
:1001A0009C01232F330F330B2595809102019091F1
:1001B0000301820F931F0E946F00909303018093AD
:1001C0000201209118013091190180910201909152
:1001D0000301820F931F0E946F009093050180938B
:1001E000040180910401909105010E94CC0300005C
:1001F0000F900F900F900F90DF91CF9108951F9265
:100200000F9200905F000F9211242F933F938F93D2
:100210009F93EF93FF93CF93DF93CDB7DEB788E73C
:1002200090E0FC0180819181909307018093060109
:1002300086E390E026E330E0F90120812160FC01B3
:1002400020830000DF91CF91FF91EF919F918F91DB
:100250003F912F910F9000925F000F901F90189583
:100260001F920F9200905F000F9211242F933F93E3
:100270008F939F93EF93FF93CF93DF93CDB7DEB729
:1002800080910A01882F90E026EC30E0F90120816E
:10029000865E9E4FFC01208380910A018F5F8093D0
:1002A0000A0110920C0180910A01882F90E00197B9
:1002B000865E9E4FFC0180818D3031F481E0809319
:1002C0000C0110920A0106C080910A01883010F0DA
:1002D00010920A010000DF91CF91FF91EF919F9161
:1002E0008F913F912F910F9000925F000F901F9080
:1002F00018951F920F9200905F000F9211242F9378
:100300003F938F939F93EF93FF93CF93DF93CDB75B
:10031000DEB786EC90E020910B01222F30E02E5DBD
:100320003E4FF9012081FC01208380910B01882F31
:1003300090E08E5D9E4FFC01108280910B018F5FDB
:1003400080930B0110920D0186EC90E0FC018081FE
:100350008D3031F481E080930D0110920B0106C0C5
:1003600080910B01883010F010920B010000DF919A
:10037000CF91FF91EF919F918F913F912F910F908E
:1003800000925F000F901F9018950F931F93CF93CB
:10039000DF9300D0CDB7DEB79A83898389819A81B4
:1003A0009695879596958795969587959C01A5EC4A
:1003B000B0E20E946105929582958F7089279F70A7
:1003C00089278093100180911001282F30E088E167
:1003D0009CEF289FA001299F500D389F500D11249C
:1003E0009A0189819A81820F931F96958795969598
:1003F00087959C01ABE7B4E10E94610596958795CE
:100400008093110180911001282F30E088E19CEF4A
:10041000289FA001299F500D389F500D11249A014B
:1004200080911101882F90E06CE98C016003A0019C
:10043000619F500D1124CA01280F391F89819A81AB
:10044000820F931F9C01ADECBCEC0E946105969558
:1004500087959695879596958795809312019091AB
:10046000100188E1989F902D1124209111018CE9B1
:10047000289F802D1124980F8981980F8091120157
:10048000880F282F220F220F820F8195890F8093CA
:10049000130110920B0180911001805D8093220165
:1004A00080911101805D8093230180911201805D14
:1004B0008093240180911301805D8093250180E366
:1004C000809326018AE0809327018DE080932801A4
:1004D00000000F900F90DF91CF911F910F91089521
:1004E000CF93DF93CDB7DEB727970FB6F894DEBF73
:1004F0000FBECDBF9F838E8319821A821B821C82FE
:100500001D822EC08981882F90E0865E9E4FFC015F
:100510008081803318F48E819F819CC08981882FCF
:1005200090E0865E9E4FFC0180818A3318F08E81B8
:100530009F8190C08981882F90E02981222F30E00F
:10054000265E3E4FF901208140ED420F9E012E5F55
:100550003F4F820F931FFC01408389818F5F898306
:100560008981882F90E0865E9E4FFC0180818D30CE
:1005700049F68981853079F58A81482F50E088EEE7
:1005800093E0489F9001499F300D589F300D1124F2
:100590008B81482F50E064E6649FC001659F900DF9
:1005A0001124280F391F8C81882F90E0880F991F04
:1005B000AC01440F551F440F551F840F951F280F82
:1005C000391F8D81882F90E0820F931F90930F0128
:1005D00080930E0127C08981843009F58A81882F94
:1005E00090E044E6489F9001499F300D11248B8193
:1005F000882F90E0880F991FAC01440F551F440FBE
:10060000551F840F951F280F391F8C81882F90E06C
:10061000820F931F90930F0180930E0103C08E8170
:100620009F8118C080910E0190910F01843F9140ED
:1006300018F48E819F810EC080910E0190910F0160
:10064000893B9B4018F08E819F8104C080910E01F0
:1006500090910F0127960FB6F894DEBF0FBECDBF65
:10066000DF91CF910895CF93DF93CDB7DEB70E948E
:1006700097030E94B3030E94530080E895E20E9412
:10068000E803789486EC90E0FC01108280910601EA
:1006900090910701CC01A0E0B0E0BC01CD010E9427
:1006A0004704DC01CB012EEE3CE747E550E4BC01FA
:1006B000CD010E94AD04DC01CB01BC01CD010E9443
:1006C0001804DC01CB01909309018093080120916B
:1006D0000001309101018091080190910901B90157
:1006E0000E948D00809114019091150180319742F4
:1006F00050F080910801909109010E94C50110926B
:100700001501109214018091140190911501019628
:100710009093150180931401809100019091010143
:100720000E9470029093010180930001AFCFCF939C
:10073000DF93CDB7DEB784E490E023E2FC012083B1
:1007400085E490E029E0FC01208387E490E02FE934
:10075000FC0120838AE290E020E2FC01208300007B
:10076000DF91CF910895CF93DF93CDB7DEB780E8C7
:1007700090E023E0FC01208381E890E02AE1FC0185
:10078000208388E890E025E930E0FC013183208374
:100790000000DF91CF910895CF93DF9300D0CDB7C4
:1007A000DEB79A83898348E450E029813A81C90100
:1007B000880F991F820F931F892F990F990B805BC8
:1007C000FA01808300000F900F90DF91CF91089580
:1007D0000F931F93CF93DF9300D0CDB7DEB79A83EB
:1007E000898381EC90E028EDFC01208382EC90E08D
:1007F00026E0FC01208304EC10E089819A819C01B1
:1008000040E050E080E492E4AFE0B0E0BC01CD0114
:100810000E944205DA01C9010197F80191838083A2
:1008200000000F900F90DF91CF911F910F910895CD
:100830000E948C0488F09F5798F0B92F9927B751E0
:10084000B0F0E1F0660F771F881F991F1AF0BA9574
:10085000C9F714C0B13091F00E94A604B1E0089528
:100860000C94A604672F782F8827B85F39F0B93F1A
:10087000CCF3869577956795B395D9F73EF4909527
:100880008095709561957F4F8F4F9F4F0895E894A5
:1008900009C097FB3EF490958095709561957F4FC8
:1008A0008F4F9F4F9923A9F0F92F96E9BB27939576
:1008B000F695879577956795B795F111F8CFFAF486
:1008C000BB0F11F460FF1BC06F5F7F4F8F4F9F4FB7
:1008D00016C0882311F096E911C0772321F09EE815
:1008E000872F762F05C0662371F096E8862F70E07B
:1008F00060E02AF09A95660F771F881FDAF7880F55
:100900009695879597F9089557FD9058440F551F70
:1009100059F05F3F71F04795880F97FB991F61F081
:100920009F3F79F087950895121613061406551FF8
:10093000F2CF4695F1DF08C0161617061806991F64
:10094000F1CF86957105610508940895E894BB2759
:1009500066277727CB0197F908950E94C0040C946D
:1009600031050E94230538F00E942A0520F09523C6
:1009700011F00C941A050C94200511240C94A70472
:100980000E94840470F3959FC1F3950F50E0551FAA
:10099000629FF001729FBB27F00DB11D639FAA27D4
:1009A000F00DB11DAA1F649F6627B00DA11D661F23
:1009B000829F2227B00DA11D621F739FB00DA11D44
:1009C000621F839FA00D611D221F749F3327A00DFE
:1009D000611D231F849F600D211D822F762F6A2F9A
:1009E00011249F5750409AF0F1F088234AF0EE0FFF
:1009F000FF1FBB1F661F771F881F91505040A9F72C
:100A00009E3F510580F00C941A050C94A7045F3F9B
:100A1000E4F3983ED4F3869577956795B795F79567
:100A2000E7959F5FC1F7FE2B880F911D96958795DF
:100A300097F9089597F99F6780E870E060E008955E
:100A40009FEF80EC089500240A94161617061806E6
:100A50000906089500240A941216130614060506C2
:100A60000895092E0394000C11F4882352F0BB0F53
:100A700040F4BF2B11F460FF04C06F5F7F4F8F4FB6
:100A80009F4F0895052E97FB1EF400940E94590570
:100A900057FD07D00E94700507FC03D04EF40C945C
:100AA000590550954095309521953F4F4F4F5F4FD9
:100AB000089590958095709561957F4F8F4F9F4FCA
:100AC0000895A29FB001B39FC001A39F700D811D27
:100AD0001124911DB29F700D811D1124911D089547
:100AE000A1E21A2EAA1BBB1BFD010DC0AA1FBB1F32
:100AF000EE1FFF1FA217B307E407F50720F0A21BA4
:100B0000B30BE40BF50B661F771F881F991F1A9410
:100B100069F760957095809590959B01AC01BD013A
:080B2000CF010895F894FFCF06
:020B2800F401D6
:00000001FF
