S02200005465616D2034205541525420496D706C656D656E746174696F6E2E73726563E5
S11300000C9434000C9449000C9449000C9449005D
S11300100C9449000C9449000C9449000C94490038
S11300200C9449000C9449000C9449000C94490028
S11300300C9449000C9449000C9449000C94490018
S11300400C9449000C9449000C9449000C94490008
S11300500C9449000C9449000C9449000C944900F8
S11300600C9449000C94490011241FBECFEFD8E032
S1130070DEBFCDBF11E0A0E0B1E0ECE0F9E002C0EA
S113008005900D92A233B107D9F70E944B000C944E
S113009084040C940000CF93DF93CDB7DEB7A4970C
S11300A00FB6F894DEBF0FBECDBF8CE090E00E9487
S11300B0CA028AE798E098878F832F813885CE011A
S11300C04B96B9010E9492011A8219821AC09E01AC
S11300D0255E3F4F89819A81820F931FFC018081A5
S11300E00E948601482F9E01205E3F4F89819A819C
S11300F0820F931FFC01408389819A8101969A8320
S1130100898389819A81059714F380E091E00E94A4
S11301108002CE0180960E940D0380E191E00E944E
S113012080028DE00E94F2028AE00E94F20284EDD5
S113013090E39A87898729853A85CE014B96B90140
S11301400E9492011C821B821AC09E01255E3F4FB1
S11301508B819C81820F931FFC0180810E94860108
S1130160482F9E01205E3F4F8B819C81820F931FFD
S1130170FC0140838B819C8101969C838B838B81C2
S11301809C81059714F383E191E00E948002CE01E3
S113019080960E940D0382E291E00E9480028DE02D
S11301A00E94F2028AE00E94F20280EA90E09C87B8
S11301B08B872B853C85CE014B96B9010E94920119
S11301C01E821D821AC09E01255E3F4F8D819E8135
S11301D0820F931FFC0180810E948601482F9E019B
S11301E0205E3F4F8D819E81820F931FFC014083CF
S11301F08D819E8101969E838D838D819E8105973D
S113020014F385E291E00E948002CE0180960E9460
S11302100D038EE291E00E9480028DE00E94F202C2
S11302208AE00E94F20280E090E0AAE7B4E48D87BD
S11302309E87AF87B88B20E030E04AEF53E46D85AA
S11302407E858F8598890E94D703DC01CB01898B39
S11302509A8BAB8BBC8B20E030E040E85FE369898C
S11302607A898B899C890E94510388232CF481E02C
S113027090E09E8B8D8B3FC020E03FEF4FE757E42B
S113028069897A898B899C890E94D20318164CF556
S113029020E030E040E251E46D857E858F859889C9
S11302A00E94D703DC01CB01BC01CD010E9456039F
S11302B0DC01CB019E8B8D8B0FC082E390E0988F85
S11302C08F8B8F89988D0197F1F7988F8F8B8D89FC
S11302D09E8901979E8B8D8B8D899E89892B69F7C9
S11302E014C069897A898B899C890E945603DC0130
S11302F0CB019E8B8D8B8D899E899A8F898F898D59
S11303009A8D0197F1F79A8F898FD3CECF93DF938C
S11303101F92CDB7DEB789838981805D0F90DF910D
S1130320CF910895CF93DF9300D000D0CDB7DEB73F
S11303309A8389837C836B838B819C81929582953C
S11303408F7089279F7089279C01A7E4B3E00E94DE
S11303506C04969587959695879596958795282FFD
S113036089819A81FC0120834B815C81CA01929529
S113037082958F7089279F7089279C01A7E4B3E039
S11303800E946C04BC017695679576956795769581
S1130390679520E137E2629FC001639F900D729FD1
S11303A0900D11249A01281B390BC9019C838B835E
S11303B089819A81AC014F5F5F4F8B819C819695B7
S11303C0879596958795969587959C01A5ECB0E2BF
S11303D00E946C04929582958F7089279F7089275B
S11303E0FA0180834B815C81CA0196958795969525
S11303F08795969587959C01A5ECB0E20E946C04C4
S1130400BC01729562956F7067277F70672728EE2D
S113041033E0629FC001639F900D729F900D112481
S11304209A01281B390BC9019C838B8389819A818A
S1130430AC014E5F5F4F8B819C8196958795969515
S113044087959C01ABE7B4E10E946C04969587956F
S1130450FA0180834B815C81CA01969587959695B4
S113046087959C01ABE7B4E10E946C049C0136952E
S1130470279564E6629FC001639F900D11249A0141
S1130480281B390BC9019C838B8389819A81AC0118
S11304904D5F5F4F8B819C819C01ADECBCEC0E9455
S11304A06C04969587959695879596958795FA0108
S11304B0808389819A81FC0134964B815C819A0105
S11304C0ADECBCEC0E946C04969587959695879547
S11304D096958795880F991F9C01220F331F220F31
S11304E0331F820F931F9A01281B390BC901808384
S11304F000000F900F900F900F90DF91CF9108950F
S11305000F931F93CF93DF9300D01F92CDB7DEB725
S11305109B838A83198210C08981882F90E02A8165
S11305203B81820F931FFC018081882F90E00E9401
S1130530AF0289818F5F89838981082F10E08A81C6
S11305409B810E947B040817190730F300000F9069
S11305500F900F90DF91CF911F910F910895CF933A
S1130560DF931F92CDB7DEB78983000080EC90E063
S1130570FC018081882F90E080729927892BB1F348
S113058086EC90E02981FC01208300000F90DF912C
S1130590CF910895CF93DF9300D0CDB7DEB79A8380
S11305A0898381EC90E021EC30E0F901208128601E
S11305B0FC01208382EC90E026E0FC01208385ECA2
S11305C090E029813A81232F3327FC01208384EC96
S11305D090E02981FC01208300000F900F90DF91AF
S11305E0CF910895CF93DF931F92CDB7DEB7898360
S11305F0000080EC90E0FC018081882F90E0807204
S11306009927892BB1F386EC90E02981FC012083A2
S113061000000F90DF91CF910895CF93DF9300D026
S113062000D000D0CDB7DEB79E838D831A821982A5
S11306300FC089819A812D813E81820F931FFC0115
S113064080810E94F20289819A8101969A8389832A
S113065089819A8103976CF38EE20E94F20283E00F
S113066090E09C838B830FC08B819C812D813E8184
S1130670820F931FFC0180810E94F2028B819C8176
S113068001969C838B838B819C8105976CF300007E
S113069026960FB6F894DEBF0FBECDBFDF91CF9183
S11306A008950E94850308F481E008950E94B1032F
S11306B088F09F5798F0B92F9927B751B0F0E1F01F
S11306C0660F771F881F991F1AF0BA95C9F714C0CF
S11306D0B13091F00E94CB03B1E008950C94CB03A8
S11306E0672F782F8827B85F39F0B93FCCF3869508
S11306F077956795B395D9F73EF490958095709565
S113070061957F4F8F4F9F4F0895990F0008550FA4
S1130710AA0BE0E8FEEF16161706E807F907C0F083
S113072012161306E407F50798F0621B730B840B8B
S1130730950B39F40A2661F0232B242B252B21F465
S113074008950A2609F4A140A6958FEF811D811D05
S1130750089557FD9058440F551F59F05F3F71F0AD
S11307604795880F97FB991F61F09F3F79F0879514
S11307700895121613061406551FF2CF4695F1DF9D
S113078008C0161617061806991FF1CF869571052D
S1130790610508940895E894BB2766277727CB0161
S11307A097F908950E94850308F48FEF08950E9435
S11307B0EA030C945B040E944D0438F00E94540434
S11307C020F0952311F00C9444040C944A04112451
S11307D00C94CC030E94A90370F3959FC1F3950F69
S11307E050E0551F629FF001729FBB27F00DB11DB1
S11307F0639FAA27F00DB11DAA1F649F6627B00D41
S1130800A11D661F829F2227B00DA11D621F739F29
S1130810B00DA11D621F839FA00D611D221F749F37
S11308203327A00D611D231F849F600D211D822F7E
S1130830762F6A2F11249F5750409AF0F1F08823A5
S11308404AF0EE0FFF1FBB1F661F771F881F9150D2
S11308505040A9F79E3F510580F00C9444040C9439
S1130860CC035F3FE4F3983ED4F386957795679580
S1130870B795F795E7959F5FC1F7FE2B880F911DFC
S11308809695879597F9089597F99F6780E870E0A2
S113089060E008959FEF80EC089500240A941616F2
S11308A0170618060906089500240A94121613065A
S11308B0140605060895092E0394000C11F48823E8
S11308C052F0BB0F40F4BF2B11F460FF04C06F5F04
S11308D07F4F8F4F9F4F0895A29FB001B39FC001D8
S11308E0A39F700D811D1124911DB29F700D811D58
S11308F01124911D0895FC0101900020E9F78095D1
S10F090090958E0F9F1F0895F894FFCF70
S113090C5065616B20566F6C74616765203D2000E7
S113091C205600524D532043757272656E74203DFF
S113092C2000204100506F776572203D2000205735
S105093C0000B5
S9030000FC
